:020000040800F2
:100000000050002069120008D9100008DB10000819
:10001000DD100008DF100008E110000800000000FB
:10002000000000000000000000000000E3100008D5
:10003000E510000800000000E7100008E9100008C3
:10004000B1120008B1120008B1120008B112000884
:10005000B1120008B1120008B1120008F110000836
:10006000B1120008B1120008B1120008B112000864
:10007000B1120008B1120008B1120008B112000854
:10008000B1120008B1120008B1120008B112000844
:10009000FD100008B1120008B1120008B1120008EA
:1000A000B1120008B1120008B1120008B112000824
:1000B000B1120008B1120008B1120008B112000814
:1000C000B1120008B1120008B1120008B112000804
:1000D000B1120008B1120008B1120008B1120008F4
:1000E000B1120008B1120008B112000800000000AF
:1000F0000000000000000000000000000000000000
:0C01000000000000000000005FF808F1A3
:1001100081F0004102E000BF83F0004330B54FEAB8
:1001200041044FEA430594EA050F08BF90EA020F25
:100130001FBF54EA000C55EA020C7FEA645C7FEAB8
:10014000655C00F0E2804FEA5454D4EB5555B8BFDB
:100150006D420CDD2C4480EA020281EA030382EA4C
:10016000000083EA010180EA020281EA0303362DDE
:1001700088BF30BD11F0004F4FEA01314FF4801CB1
:100180004CEA113102D0404261EB410113F0004FC3
:100190004FEA03334CEA133302D0524263EB43037A
:1001A00094EA050F00F0A780A4F10104D5F1200E18
:1001B0000DDB02FA0EFC22FA05F2801841F1000173
:1001C00003FA0EF2801843FA05F359410EE0A5F147
:1001D00020050EF1200E012A03FA0EFC28BF4CF078
:1001E000020C43FA05F3C01851EBE37101F000452E
:1001F00007D54FF0000EDCF1000C7EEB00006EEB3B
:100200000101B1F5801F1BD3B1F5001F0CD34908C4
:100210005FEA30004FEA3C0C04F101044FEA44521B
:1002200012F5800F80F09A80BCF1004F08BF5FEAA2
:10023000500C50F1000041EB045141EA050130BD82
:100240005FEA4C0C404141EB0101013C28BFB1F594
:10025000801FE9D291F0000F04BF01460020B1FADF
:1002600081F308BF2033A3F10B03B3F120020CDAB2
:100270000C3208DD02F1140CC2F10C0201FA0CF090
:1002800021FA02F10CE002F11402D8BFC2F1200CF5
:1002900001FA02F120FA0CFCDCBF41EA0C019040AB
:1002A000E41AA2BF01EB0451294330BD6FEA0404F4
:1002B0001F3C1CDA0C340EDC04F11404C4F12002DF
:1002C00020FA04F001FA02F340EA030021FA04F3F1
:1002D00045EA030130BDC4F10C04C4F1200220FA48
:1002E00002F001FA04F340EA0300294630BD21FA86
:1002F00004F0294630BD94F0000F83F4801306BF4C
:1003000081F480110134013D4EE77FEA645C18BF3F
:100310007FEA655C29D094EA050F08BF90EA020FD6
:1003200005D054EA000C04BF1946104630BD91EACE
:10033000030F1EBF0021002030BD5FEA545C05D1D1
:100340004000494128BF41F0004130BD14F5800410
:100350003CBF01F5801130BD01F0004545F0FE4184
:1003600041F470014FF0000030BD7FEA645C1ABFB9
:10037000194610467FEA655C1CBF0B46024650EAF0
:10038000013406BF52EA033591EA030F41F400211C
:1003900030BD00BF90F0000F04BF0021704730B5A2
:1003A0004FF4806404F132044FF000054FF0000177
:1003B00050E700BF90F0000F04BF0021704730B538
:1003C0004FF4806404F1320410F0004548BF40420D
:1003D0004FF000013EE700BF42004FEAE2014FEA62
:1003E00031014FEA02701FBF12F07F4393F07F4F3D
:1003F00081F06051704732F07F4208BF704793F040
:100400007F4F04BF41F40021704730B54FF4607452
:1004100001F0004521F000411CE700BF50EA010255
:1004200008BF704730B54FF000050AE050EA0102FE
:1004300008BF704730B511F0004502D5404261EB6E
:1004400041014FF4806404F132045FEA915C3FF4AF
:10045000D8AE4FF003025FEADC0C18BF03325FEA4C
:10046000DC0C18BF033202EBDC02C2F1200300FAFD
:1004700003FC20FA02F001FA03FE40EA0E0021FA22
:1004800002F11444BDE600BF70B54FF0FF0C4CF410
:10049000E06C1CEA11541DBF1CEA135594EA0C0FC2
:1004A00095EA0C0F00F0DEF82C4481EA030621EAFD
:1004B0004C5123EA4C5350EA013518BF52EA033538
:1004C00041F4801143F4801338D0A0FB02CE4FF0EA
:1004D0000005E1FB02E506F00042E0FB03E54FF01A
:1004E0000006E1FB03569CF0000F18BF4EF0010E12
:1004F000A4F1FF04B6F5007F64F5407404D25FEA0E
:100500004E0E6D4146EB060642EAC62141EA5551C0
:100510004FEAC52040EA5E504FEACE2EB4F1FD0C02
:1005200088BFBCF5E06F1ED8BEF1004F08BF5FEA80
:10053000500E50F1000041EB045170BD06F0004632
:1005400046EA010140EA020081EA0301B4EB5C04DF
:10055000C2BFD4EB0C0541EA045170BD41F48011D7
:100560004FF0000E013C00F3AB8014F1360FDEBFFC
:10057000002001F0004170BDC4F10004203C35DAD8
:100580000C341BDC04F11404C4F1200500FA05F35B
:1005900020FA04F001FA05F240EA020001F00042FC
:1005A00021F0004110EBD37021FA04F642EB060172
:1005B0005EEA430E08BF20EAD37070BDC4F10C049C
:1005C000C4F1200500FA04F320FA05F001FA04F260
:1005D00040EA020001F0004110EBD37041F100014C
:1005E0005EEA430E08BF20EAD37070BDC4F1200557
:1005F00000FA05F24EEA020E20FA04F301FA05F2BF
:1006000043EA020321FA04F001F0004121FA04F266
:1006100020EA020000EBD3705EEA430E08BF20EA36
:10062000D37070BD94F0000F0FD101F00046400070
:1006300041EB010111F4801F08BF013CF7D041EAF2
:10064000060195F0000F18BF704703F000465200F6
:1006500043EB030313F4801F08BF013DF7D043EAC7
:100660000603704794EA0C0F0CEA135518BF95EA7D
:100670000C0F0CD050EA410618BF52EA4306D1D104
:1006800081EA030101F000414FF0000070BD50EA23
:10069000410606BF1046194652EA430619D094EAAD
:1006A0000C0F02D150EA013613D195EA0C0F05D197
:1006B00052EA03361CBF104619460AD181EA0301EB
:1006C00001F0004141F0FE4141F470014FF00000A3
:1006D00070BD41F0FE4141F4780170BD70B54FF03E
:1006E000FF0C4CF4E06C1CEA11541DBF1CEA1355BE
:1006F00094EA0C0F95EA0C0F00F0A7F8A4EB0504A0
:1007000081EA030E52EA03354FEA013100F0888096
:100710004FEA03334FF0805545EA131343EA12635F
:100720004FEA022245EA111545EA10654FEA002614
:100730000EF000419D4208BF964244F1FD0404F5CD
:10074000407402D25B084FEA3202B61A65EB030529
:100750005B084FEA32024FF480104FF4002CB6EBE6
:10076000020E75EB030E22BFB61A754640EA0C0066
:100770005B084FEA3202B6EB020E75EB030E22BFA6
:10078000B61A754640EA5C005B084FEA3202B6EBE7
:10079000020E75EB030E22BFB61A754640EA9C00A6
:1007A0005B084FEA3202B6EB020E75EB030E22BF76
:1007B000B61A754640EADC0055EA060E18D04FEA34
:1007C000051545EA16754FEA06164FEAC30343EAD4
:1007D00052734FEAC2025FEA1C1CC0D111F4801FA1
:1007E0000BD141EA00014FF000004FF0004CB6E79A
:1007F00011F4801F04BF01430020B4F1FD0C88BF39
:10080000BCF5E06F3FF6AFAEB5EB030C04BFB6EB43
:10081000020C5FEA500C50F1000041EB045170BD36
:100820000EF0004E4EEA113114EB5C04C2BFD4EB63
:100830000C0541EA045170BD41F480114FF0000EE7
:10084000013C90E645EA060E8DE60CEA135594EA63
:100850000C0F08BF95EA0C0F3FF43BAF94EA0C0F66
:100860000AD150EA01347FF434AF95EA0C0F7FF4DB
:1008700025AF104619462CE795EA0C0F06D152EA2F
:1008800003353FF4FDAE1046194622E750EA410613
:1008900018BF52EA43067FF4C5AE50EA41047FF424
:1008A0000DAF52EA43057FF4EBAE12E780F0004053
:1008B00002E000BF81F0004142001FBF5FEA410338
:1008C00092EA030F7FEA226C7FEA236C6AD04FEA38
:1008D0001262D2EB1363C1BFD2184140484041407D
:1008E000B8BF5B42192B88BF704710F0004F40F42F
:1008F000000020F07F4018BF404211F0004F41F44B
:10090000000121F07F4118BF494292EA030F3FD016
:10091000A2F1010241FA03FC10EB0C00C3F1200329
:1009200001FA03F100F0004302D5494260EB4000B8
:10093000B0F5000F13D3B0F1807F06D340084FEA23
:10094000310102F10102FE2A51D2B1F1004F40EB18
:10095000C25008BF20F0010040EA03007047490080
:1009600040EB0000013A28BFB0F5000FEDD2B0FA1D
:1009700080FCACF1080CB2EB0C0200FA0CF0AABF40
:1009800000EBC25052421843BCBFD04018437047DE
:1009900092F0000F81F4000106BF80F400000132E4
:1009A000013BB5E74FEA41037FEA226C18BF7FEABB
:1009B000236C21D092EA030F04D092F0000F08BFFD
:1009C0000846704790EA010F1CBF0020704712F0E4
:1009D0007F4F04D1400028BF40F00040704712F123
:1009E00000723CBF00F50000704700F0004343F088
:1009F000FE4040F4000070477FEA226216BF0846BE
:100A00007FEA23630146420206BF5FEA412390EA80
:100A1000010F40F4800070474FF0000304E000BF76
:100A200010F0004348BF40425FEA000C08BF704727
:100A300043F0964301464FF000001CE050EA0102EB
:100A400008BF70474FF000030AE000BF50EA010200
:100A500008BF704711F0004302D5404261EB4101ED
:100A60005FEA010C02BF84460146002043F0B64312
:100A700008BFA3F18053A3F50003BCFA8CF2083A37
:100A8000A3EBC25310DB01FA02FC634400FA02FC40
:100A9000C2F12002BCF1004F20FA02F243EB020047
:100AA00008BF20F00100704702F1200201FA02FCA9
:100AB000C2F1200250EA4C0021FA02F243EB02009C
:100AC00008BF20EADC707047844641EA000313F057
:100AD000030349D1403A23D30B6803604B6843605A
:100AE0008B688360CB68C3600B6903614B694361AA
:100AF0008B698361CB69C3610B6A03624B6A436292
:100B00008B6A8362CB6AC3620B6B03634B6B436379
:100B10008B6B8363CB6BC36340304031403ADBD295
:100B200030320BD30B6803604B6843608B68836083
:100B3000CB68C36010301031103AF3D20C3205D3B9
:100B400051F8043B40F8043B043AF9D2043208D08F
:100B5000D2071CBF11F8013B00F8013B01D30B8801
:100B600003806046704700BF082A13D38B07B1D0BB
:100B700010F00303AED0C3F10403D21ADB071CBF8D
:100B800011F8013B00F8013BA4D331F8023B20F8F7
:100B9000023B9FE7043AD9D3013A11F8013B00F830
:100BA000013BF9D20B7803704B7843708B788370DC
:100BB000604670474FF0FF3C06E000BF4FF0010C6D
:100BC00002E000BF4FF0010C4DF804CD4FEA410C9C
:100BD0007FEA6C5C4FEA430C18BF7FEA6C5C1BD069
:100BE00001B050EA410C0CBF52EA430C91EA030FEA
:100BF00002BF90EA020F0020704710F1000F91EA47
:100C0000030F58BF994208BF90422CBFD8176FEA14
:100C1000E37040F0010070474FEA410C7FEA6C5CE2
:100C200002D150EA013C07D14FEA430C7FEA6C5CE9
:100C3000D6D152EA033CD3D05DF8040B704700BF15
:100C40008446104662468C461946634600E000BF63
:100C500001B5FFF7B7FF002848BF10F1000F01BD35
:100C60004DF808EDFFF7F4FF0CBF012000205DF800
:100C700008FB00BF4DF808EDFFF7EAFF34BF012085
:100C800000205DF808FB00BF4DF808EDFFF7E0FF1E
:100C900094BF012000205DF808FB00BF4DF808ED6F
:100CA000FFF7CEFF94BF012000205DF808FB00BFD6
:100CB0004DF808EDFFF7C4FF34BF012000205DF8B8
:100CC00008FB00BF4FEA410C7FEA6C5C02D150EA9E
:100CD000013C0AD14FEA430C7FEA6C5C02D152EA34
:100CE000033C02D14FF0000070474FF00100704705
:100CF0004FEA410212F5001215D211D56FF4787344
:100D0000B3EB625212D94FEAC12343F0004343EAE6
:100D1000505311F0004F23FA02F018BF40427047C1
:100D20004FF00000704750EA013005D111F000404B
:100D300008BF6FF0004070474FF00000704700BFE1
:100D40000348044B834202D0034B03B1184770475A
:100D50003408002034080020000000000548064B3D
:100D60001B1AD90F01EBA301491002D0034B03B1A9
:100D700018477047340800203408002000000000A5
:100D800010B5064C237843B9FFF7DAFF044B13B1D3
:100D90000448AFF300800123237010BD3408002005
:100DA000000000000CB7000808B5054B1BB1054951
:100DB0000548AFF30080BDE80840FFF7CFBF00BF94
:100DC00000000000380800200CB7000870B588B09B
:100DD000002404940594069407941F4B9A6942F0EA
:100DE00020029A619A6902F020020192019A9A699E
:100DF00042F008029A619A6902F008020292029A8D
:100E00009A6942F004029A619B6903F00403039318
:100E1000039B124D22460121284600F05AFC012373
:100E20000493059306940226079604A9284600F029
:100E30003BFB04960A4B0593069404A9284600F050
:100E400033FB22462146072000F0EAFA072000F093
:100E5000F7FA08B070BD00BF00100240000C01405E
:100E600000003110022800D0704708B50221114857
:100E700000F028FC012808D002210E4800F022FCD6
:100E800068B1072000F0EAFA08BD0B4B00225A6255
:100E90000A4801F0BBFF0A4B01221A70ECE7074831
:100EA00001F0E2FF044B5A6A064B1A60064B01221E
:100EB0001A70E6E7000C0140002C01407008002089
:100EC000510800205408002050080020F8B50746BB
:100ED0004FF0E0267569346901F0D8FE0A4AA2FB9A
:100EE00000235B0D07FB03F373610023B361012350
:100EF00033614FF0E0231B6913F4803FF9D04FF0CA
:100F0000E0235D611C61F8BD83DE1B4372B6FEE722
:100F100000B595B0282200210DEB020004F08CFAF8
:100F20000023059306930793089309930193029373
:100F30000393049301220A924FF480330B930E9291
:100F40000222119212934FF4E01313930AA801F0B6
:100F5000A7FBC0B90F230593022106910023079335
:100F60004FF480620892099305A801F0D9FD60B999
:100F7000102301930023049301A801F08DFE30B9E2
:100F800015B05DF804FBFFF7C1FFFFF7BFFFFFF7E8
:100F9000BDFF00000000000030B583B000F0B0F9E4
:100FA000FFF7B6FFFFF712FF00F010F903F0CAFEDB
:100FB00005212F4803F016FF2E4C012525610C203A
:100FC000FFF784FF65612FE02B4B00221A702B4B3B
:100FD0001868FFF721FDFFF7FFF90022284BFFF704
:100FE00053FA21A3D3E90023FFF778FB02460B460F
:100FF000244C0A2100912449204604F0B3F92046EC
:1010000004F0F4FA81B2204603F0ECFE1F4B0222FA
:101010005A615A61072000F039FA072000F010FAEF
:101020004FF47A7000F090F9124C012525610C20E4
:10103000FFF74CFF6561104B1B78AB42C4D0144BDB
:101040001B78012BF0D1124B00221A700F4B022299
:101050005A615A61072000F019FA072000F0F0F9F0
:10106000E2E700BFAFF300808195438B6C273D40E2
:1010700028B70008000C0140500800205408002048
:101080000000E03F5808002030B70008000401408D
:101090005108002082B00E4B9A6942F001029A6119
:1010A0009A6902F001020092009ADA6942F08052D5
:1010B000DA61DB6903F080530193019B054A5368B1
:1010C00023F0E06343F00073536002B0704700BF49
:1010D0000010024000000140FEE7FEE7FEE7FEE7E9
:1010E000FEE770477047704708B500F01BF908BD70
:1010F00008B5022000F0F4FA08BD000008B5024867
:1011000001F073F808BD00BF74170020012070477C
:1011100008B504F035FA162303604FF0FF3008BD20
:1011200008B54FF0FF31FFF7F3FFFEE770B50C464F
:101130001646002506E0AFF30080214601F8010BBA
:1011400001350C46B542F6DB304670BD70B50C4635
:101150001646002504E014F8010BAFF300800135BA
:10116000B542F8DB304670BD4FF0FF3070474FF4AA
:1011700000534B60002070470120704700207047EB
:1011800010B503460C4A0D490D48006840B10C48A3
:1011900000680344521A934206D8094A136010BDEE
:1011A0000748084C0460F2E704F0EAF90C230360F6
:1011B0004FF0FF30F3E700BF0050002000040000B4
:1011C0006C080020781D00207047000000B587B033
:1011D000002302930393049305930093019315480E
:1011E000154A02604722426083604FF6FF72C26078
:1011F00003614361836101F085FE90B94FF4805330
:10120000029302A90B4801F0B5FE68B900230093D0
:1012100001936946074801F01BFF40B907B05DF82C
:1012200004FBFFF773FEE9E7FFF770FEEEE7FFF759
:101230006DFEF3E770080020002C01400268094BA6
:101240009A4200D0704782B003F564439A6942F431
:1012500000629A619B6903F400630193019B02B0F1
:10126000704700BF002C01400C480D490D4A002377
:1012700002E0D458C4500433C4188C42F9D30A4A4B
:101280000A4C002301E013600432A242FBD3FFF7B3
:101290009BFF04F07BF9FFF77FFE70470000002002
:1012A00034080020A0BB000834080020741D002072
:1012B000FEE7000010B504460E4B1A784FF47A731F
:1012C000B3FBF2F30C4A1068B0FBF3F000F0CAF87D
:1012D00068B90F2C01D901200AE0002221464FF005
:1012E000FF3000F09DF8054B1C60002000E001205D
:1012F00010BD00BF040000200000002008000020F6
:1013000008B5074A136843F010031360032000F088
:1013100075F80F20FFF7CEFFFFF7BCFE002008BDD9
:1013200000200240034A1168034B1B780B441360F2
:10133000704700BFB808002004000020014B186867
:10134000704700BFB808002038B50446FFF7F6FF25
:101350000546B4F1FF3F02D0044B1B781C44FFF755
:10136000EDFF401BA042FAD338BD00BF04000020AF
:1013700000280CDB00F01F024009012393402030BD
:10138000034A42F82030BFF34F8FBFF36F8F70478F
:1013900000E100E0002808DB0901C9B200F160406B
:1013A00000F5614080F80013704700F00F0009015C
:1013B000C9B2014B1954704714ED00E000B500F0BC
:1013C0000700C0F1070CBCF1040F28BF4FF0040C5C
:1013D000031D062B0FD9C31E4FF0FF3E0EFA0CF073
:1013E00021EA000199400EFA03FE22EA0E0241EAC8
:1013F00002005DF804FB0023EEE70000074AD36813
:1014000023F4E0631B041B0C000200F4E0600343C0
:1014100043F0BF6343F40033D360704700ED00E056
:1014200010B50446054BD868C0F30220FFF7C6FF8D
:1014300001462046FFF7AEFF10BD00BF00ED00E003
:10144000002807DB00F01F02400901239340024AF5
:1014500042F82030704700BF00E100E008B5FFF718
:1014600087FF08BD0138B0F1807F0BD24FF0E02339
:101470005861054AF02182F8231000209861072264
:101480001A6170470120704700ED00E0002808DB7A
:1014900000F01F024009012393406030014A42F8E6
:1014A0002030704700E100E070B582B00024A4460F
:1014B000A2E07E4DAB4210D007D97D4DAB420CD09F
:1014C00005F58035AB4208D013E0A5F58015AB4299
:1014D00003D005F57025AB4207D18B68002B55D0A2
:1014E000012B4ED04261082403E0A5F58015AB42E4
:1014F000F3D0BEF1FF0F4BD806464FEA8C0233689B
:101500000F25954023EA050304FA02F213433360E2
:101510004B6813F0805F6DD0664B9A6942F0010210
:101520009A619B6903F001030193019B4FEA9C02BE
:10153000951C614B53F825600CF00305AD000F239B
:10154000AB4026EA03065D4B984228D003F5806342
:10155000984200F08D8003F58063984200F08A8005
:1015600003F58063984218D0042319E0CC68C0E7E3
:10157000CC680434BDE7CC680834BAE7CC680C34D6
:10158000B7E702610824B4E70024B2E70424B0E717
:10159000061DACF108029200B1E7032300E000232E
:1015A000AB4033430232444D45F822304B6813F4CC
:1015B000803F61D0424A136843EA0E0313604B68D0
:1015C00013F4003F5ED03E4A536843EA0E03536073
:1015D0004B6813F4801F5BD0394A936843EA0E03CB
:1015E00093604B6813F4001F58D0354AD36843EA20
:1015F0000E03D3600CF1010C0B6833FA0CF253D0DC
:10160000012202FA0CF203EA020E32EA0303F1D1DC
:101610004B68122B3FF64DAF122B3FF66AAF01A578
:1016200055F823F0DB1400086D1500087715000845
:1016300089150008F3140008F3140008F3140008D7
:10164000F3140008F3140008F3140008F31400085E
:10165000F3140008F3140008F3140008F31400084E
:10166000F3140008F3140008711500087D15000834
:10167000012395E7022393E7114A136823EA0E0337
:1016800013609CE70E4A536823EA0E0353609FE7FA
:101690000B4A936823EA0E039360A2E7084AD368D3
:1016A00023EA0E03D360A5E702B070BD000022104C
:1016B000000031100010024000000140000801400D
:1016C000000401408368194201D0012070470020C6
:1016D00070470AB101617047090401617047000059
:1016E00008B5054B5B69034200D108BD024B586148
:1016F000FFF7B8FBF9E700BF0004014038B512F46A
:10170000804F44D00468B4F850309BB291F800C0C8
:1017100003EBCC03023304EB4304B4F80044C4F3FA
:1017200009048B69A34228D31B1B8B618B697BB98E
:10173000056835F82C309BB223F4804323F0700306
:1017400083F4005343F4004343F0800325F82C3026
:1017500012F0400F0ED002680D7832F825309BB29F
:1017600023F4E04323F0700343F4004343F0C00349
:1017700022F8253024B9204638BD00238B61D5E7F7
:1017800023460A894969006802F05EFCF3E70468B1
:10179000B4F850309BB291F800C003EBCC03063391
:1017A00004EB4304B4F80044C4F309048B69A34276
:1017B0002FD31B1B8B618B697BB9056835F82C30E7
:1017C0009BB223F4804323F0700383F4005343F46B
:1017D000004343F0800325F82C3012F0400F0FD166
:1017E000026891F800C032F82C309BB223F4E04339
:1017F00023F0700343F4004343F0C00322F82C307D
:10180000002CB8D023464A894969006802F01CFCC4
:10181000B1E700238B61CEE770B586B0002800F0F9
:101820008580044690F8A932EBB1032384F8A932ED
:10183000206801F053FC254655F8106BEC460FCD9F
:10184000ACE80F002B68CCF80030231D0ECB3046DF
:1018500001F034FC054658B1022384F8A932012571
:10186000284606B070BD80F8A83203F075FBDCE7AF
:101870000021206801F03CFC2B461AE05A1C02EBC8
:10188000820104EBC1010120487002EB820104F8DF
:10189000313003EB830104EBC101CB8602EB820CF8
:1018A00004EBCC0C00208CF803008863C863086448
:1018B000D3B261688B42E1D316E005EB850304EBFC
:1018C000C303002283F8692183F8685183F86B21F0
:1018D000C3F87821C3F87C2105EB850304EBC3032F
:1018E000C3F880210135EDB2A942E6D8254655F866
:1018F000106BEC460FCDACE80F002B68CCF8003035
:10190000231D0ECB304601F0F5FB054620B1022326
:1019100084F8A9320125A3E7002384F824300123A9
:1019200084F8A932206801F01BFF99E7012597E7A9
:1019300038B590F8A832012B11D00446012580F863
:10194000A852006801F0C1FB2946204603F019FCAB
:10195000206801F003FF002084F8A80238BD0220AF
:10196000FCE770B505460C46164612F0400F00F035
:101970000D810268B2F850309BB2097803EBC103C5
:10198000023302EB4302B2F80024C2F30902A36956
:10199000934252D99B1AA361A369002B6AD1637841
:1019A000002B4DD12B68B3F8502092B2134403EBB7
:1019B0000113B3F8042492B222F4F84292B2A3F8CD
:1019C0000424B3F804246FEA42426FEA524292B20E
:1019D000A3F804242B686278002A3ED1B3F8502083
:1019E00092B21344227803EB0213B3F80C2492B2A0
:1019F00022F4F84292B2A3F80C24B3F80C246FEA54
:101A000042426FEA524292B2A3F80C24217828464F
:101A100003F0D6FA16F4804F41D02A68217832F8C4
:101A200021309BB223F4E04323F0700343F440439E
:101A300043F0800322F8213031E00023A361ABE7BB
:101A4000012BC7D12B68B3F8502092B2134403EB9B
:101A500001130022A3F80424BCE7012AD6D1B3F86D
:101A6000502092B21344227803EB02130022A3F811
:101A70000C24CBE716F4804F0DD0286830F82130C5
:101A80009BB223F4E04323F0700343F4404343F05C
:101A9000800320F8213094F82430012B12D02A68DA
:101AA000217832F821309BB223F4E04323F0400345
:101AB00083F0300343F4004343F0800322F82130E5
:101AC000002070BD636913446361E3691344E361FB
:101AD000216A236999421FD3C91A21626278002AB8
:101AE0003FD12A68B2F8501089B20A44217802EB3B
:101AF0000112EBB9B2F8041489B221F4F84189B2A9
:101B0000A2F80414B2F804146FEA41416FEA51419B
:101B100089B2A2F8041426E021B9002384F8243005
:101B20001346DBE7002384F8243023620B46D5E715
:101B30003E2B09D8590813F0010F00D0013189025A
:101B400089B2A2F804140EE0590913F01F0F00D156
:101B500001396FEAC1616FEA514189B2A2F80414F8
:101B600001E0012A06D09BB222896169286801F050
:101B7000FFFD94E72A68B2F8501089B20A44217830
:101B800002EB011299B2A2F80414ECE70268B2F871
:101B900050309BB2097803EBC103063302EB4302DA
:101BA000B2F80024C2F30902A369934253D39B1AEB
:101BB000A361A369002B6BD16378002B4ED12B68F6
:101BC000B3F8502092B2134403EB0113B3F804248A
:101BD00092B222F4F84292B2A3F80424B3F8042497
:101BE0006FEA42426FEA524292B2A3F804242B6891
:101BF0006278002A3FD1B3F8502092B21344227881
:101C000003EB0213B3F80C2492B222F4F84292B21E
:101C1000A3F80C24B3F80C246FEA42426FEA524254
:101C200092B2A3F80C242178284603F0C9F916F4DF
:101C3000804F7FF434AF2A68217832F821309BB28C
:101C400023F4E04323F0700343F4404343F0800364
:101C500022F8213023E70023A361AAE7012BC6D194
:101C60002B68B3F8502092B2134403EB0113002207
:101C7000A3F80424BBE7012AD5D1B3F8502092B2CF
:101C80001344227803EB02130022A3F80C24CAE7C2
:101C900016F4804F0DD1286830F821309BB223F420
:101CA000E04323F0700343F4404343F0800320F803
:101CB000213094F82430012B7FF4F1AE6369134492
:101CC0006361E3691344E361216A236999421FD385
:101CD000C91A21622A68617800293ED1B2F85010F1
:101CE00089B20A44217802EB0112EBB9B2F80C1464
:101CF00089B221F4F84189B2A2F80C14B2F80C149C
:101D00006FEA41416FEA514189B2A2F80C1426E012
:101D100021B9002384F824301346DBE70023236233
:101D200084F824300B46D5E73E2B09D8590813F028
:101D3000010F00D00131890289B2A2F80C140EE023
:101D4000590913F01F0F00D101396FEAC1616FEA21
:101D5000514189B2A2F80C1401E0012906D09BB2CE
:101D600062896169286801F003FD98E6B2F85010B5
:101D700089B20A44217802EB011299B2A2F80C143C
:101D8000EDE72DE9F04105462868B0F8443013F43A
:101D9000004F00F01382B0F84440A3B214F00F04D7
:101DA00040F0D88013F0100F61D003889AB213F47A
:101DB000006F40F0938012F4004FE5D0038823F0C9
:101DC00070031B051B0D43F0800303802868B0F8E7
:101DD00050309BB295F8682103EBC203063300EB49
:101DE0004303B3F80034C3F30903C5F884318BB15E
:101DF000D5F87C1171B1B5F86E2102F025F9D5F84E
:101E00007C31D5F884211344C5F87C310021284663
:101E100003F0CAF82B681A8812F4006FB4D1B3F833
:101E2000502092B21344D5F87821002A79D1B3F822
:101E30000C2492B222F4F84292B2A3F80C24B3F824
:101E40000C246FEA42426FEA524292B2A3F80C2489
:101E50002A6813889BB223F4804323F0700383F431
:101E6000405343F4004343F0800313808CE703881E
:101E70009BB223F4E14323F070036FEA43436FEA1C
:101E800053439BB203802A68B2F850309BB295F856
:101E9000281003EBC103023302EB4302B2F8003413
:101EA000C3F309036B64EA6B1A44EA630021284612
:101EB00003F086F895F82430002B3FF465AF2B6CC7
:101EC000002B7FF461AF95F824302A6843F080033B
:101ED000A2F84C30002385F8243055E7B0F8503094
:101EE0009BB295F8682103EBC203063300EB430372
:101EF000B3F80034C3F30903C5F88431B5F86E2193
:101F000005F52C7102F0A0F82A68138823F07003FD
:101F10001B051B0D43F080031380284603F03CF89B
:101F200032E73E2A09D8510812F0010F00D00131E2
:101F30008A0292B2A3F80C248AE7510912F01F0F0B
:101F400000D101396FEAC1626FEA524292B2A3F83E
:101F50000C247DE730F824309EB213F4004F4FD1AB
:101F600016F0800F3FF410AF621C02EB820105EB0C
:101F7000C101286830F824309BB223F4E14323F0F8
:101F800070036FEA43436FEA53439BB220F8243057
:101F9000CB78032B07D033B1022B40F00A8116F423
:101FA000807F40F006812868B0F850309BB2621CF8
:101FB00002EB820215F8326003EBC603023300EB3A
:101FC0004303B3F80034C3F3090304EB840205EBC5
:101FD000C202126C9A4240F2D48004EB840705EBF3
:101FE000C707D21A3A6404EB840205EBC202126CF2
:101FF000002A40F0CD803146284602F0E1FFC3E6DA
:1020000030F8243023F070031B051B0D43F08003D0
:1020100020F8243004EB8401C90001F5B47105EB0C
:10202000010804EB840305EBC30393F87431002B20
:1020300042D12868B0F850309BB204EB840205EB23
:10204000C20292F8682103EBC203063300EB43039C
:10205000B3F80074C7F3090717BB04EB840305EB5F
:10206000C303D3F884213A44C3F88421D3F87C21F4
:102070003A44C3F87C21D3F880313BB104EB8403AC
:1020800005EBC303D3F878319F4275D204EB840388
:1020900005EBC30393F86811284602F085FF5FE75C
:1020A00004EB840105EBC1013B46B1F86E21D1F888
:1020B0007C1101F0C9FFD0E704EB840305EBC303F7
:1020C00093F86B31022B35D0296804EB840205EBC1
:1020D000C20292F8680131F820309BB223F4E04349
:1020E00023F0700343F4004343F0C00321F8203091
:1020F000286892F8682130F8223013F4804F20D0FD
:10210000B0F850309BB203EBC203023300EB430341
:10211000B3F80074C7F30907002F9ED004EB8401C5
:1021200005EBC1013B46B1F87021D1F87C1101F0FB
:102130008BFF92E7324641462846FFF7DFFA074613
:102140008BE7B0F850309BB203EBC203063300EBD1
:102150004303B3F80074C7F30907002F3FF47DAFC2
:1021600004EB840105EBC1013B46B1F87221D1F8C3
:102170007C1101F069FF70E74146286801F00BFB14
:10218000EEE604EB840205EBC202002717642AE79F
:1021900004EB840205EBC202D66B1E44D663526C7C
:1021A00004EB840405EBC4041344636401F0F3FA04
:1021B000EAE532462846FFF7D4FBE5E50020BDE816
:1021C000F08190F8A832012B0DD010B50446012300
:1021D00080F8A83280F82410006801F0B9FA0020D5
:1021E00084F8A80210BD0220704710B584B00446E0
:1021F000006801F0B7FA10F4004F47D1206801F0F1
:10220000B1FA10F4806F45D1206801F0ABFA10F4F8
:10221000804F08D02268B2F844309BB223F4804348
:102220009BB2A2F84430206801F09CFA10F4005FE1
:1022300008D02268B2F844309BB223F400539BB21A
:10224000A2F84430206801F08DFA10F4805F32D19A
:10225000206801F087FA10F4006F78D1206801F04F
:1022600081FA10F4007F40F09D80206801F07AFA36
:1022700010F4807F08D02268B2F844309BB223F477
:1022800080739BB2A2F8443004B010BD2046FFF723
:1022900078FDB3E72268B2F844309BB223F4806340
:1022A0009BB2A2F84430204602F09BFE002120465B
:1022B000FFF787FFA8E72268B2F840309BB223F00F
:1022C00004039BB2A2F840302268B2F840309BB2BF
:1022D00023F008039BB2A2F84030204602F0A4FE8F
:1022E0002268B2F844309BB223F480539BB2A2F828
:1022F0004430ADE7226832F8231004AA02EB43020F
:1023000022F8101C0133DBB2072BF3D92268B2F894
:1023100040309BB243F00103A2F840302268B2F88B
:1023200040309BB223F001039BB2A2F840302368F7
:10233000B3F8442012F4806FF9D0B3F8442092B27D
:1023400022F4806292B2A3F8442000230BE0002321
:10235000DAE7226804A901EB430131F8101C22F8E6
:1023600023100133DBB2072BF3D92268B2F84030D7
:102370009BB243F00803A2F840302268B2F8443020
:102380009BB223F400639BB2A2F844302268B2F8F7
:1023900040309BB243F00403A2F84030204602F0E4
:1023A00033FE5BE72268B2F844309BB223F400733B
:1023B0009BB2A2F84430204602F00DFE55E710B55E
:1023C00004468C4611F0800F2AD101F0070000EB83
:1023D0008001C90001F5B47E04EB0E0100EB800022
:1023E00004EBC0004FF0000E80F869E10CF0070C20
:1023F00081F800C00A61CB704A780AB1A1F80EC01A
:10240000022B19D094F8A832012B18D0012384F89C
:10241000A832206800F07FFE002084F8A80210BDDA
:1024200001F00700013000EB800104EBC1014FF027
:10243000010E81F801E0D9E700230B71E2E70220E9
:10244000EDE710B504460B4611F0800F1FD101F0E7
:10245000070202EB8201C90001F5B471014402EBED
:10246000820200EBC202002082F8690103F0070338
:102470000B7094F8A832012B13D0012384F8A832F2
:10248000206801F004F8002084F8A80210BD01F0D3
:102490000702013202EB820100EBC101012048700A
:1024A000E4E70220F2E710B501F0070404EB840131
:1024B000C90001F5B471014404EB840C00EBCC0CB1
:1024C000CCF87C21CCF880310023CCF884318CF816
:1024D00069318CF8684124B9006801F05CF900208A
:1024E00010BD006801F057F9F9E701F0070101EBB1
:1024F000810100EBC100D0F88401704710B501F0F4
:10250000070404F1010C0CEB8C0100EBC10104EB9E
:10251000840E00EBCE0ECEF83C20CEF840300122E7
:102520008EF84C20CEF848300023CEF844304A7064
:102530000CEB8C0C00F83C4024B9006801F02BF93E
:10254000002010BD006801F026F9F9E738B501F068
:1025500007054268954231D804460B4611F0800FBA
:102560001ED101EB8101C90001F5B471014403EBF7
:10257000830300EBC303002283F8692101238B70DE
:102580000D7094F8A832012B1AD0012384F8A832D8
:10259000206801F067F85DB1002084F8A80238BD1A
:1025A0006B1C03EB830100EBC10101224A70E5E7DC
:1025B00004F52C71206801F0D9F8EDE70120EEE771
:1025C0000220ECE70B4601F00F014268914230D83F
:1025D00010B5044613F0800F21D103F0070202EB7F
:1025E0008201C90001F5B471014402EB820200EBE3
:1025F000C202002082F8690100228A7003F00703FA
:102600000B7094F8A832012B15D0012384F8A8325E
:10261000206801F04CF8002084F8A80210BD03F0F7
:102620000702013202EB820100EBC1010120487078
:10263000E2E7012070470220F0E711F0800F0BD095
:1026400001F00701013101EB810100EBC10052B93A
:102650000273C3800020704701EB8101C90001F5BE
:10266000B4710844F3E70122027303811B0C438118
:10267000F0E7000082B0084B1B68084AA2FB032366
:102680005B0A00FB03F3019300BF019B5A1E0192FA
:10269000002BF9D102B0704700000020D34D62102A
:1026A000002800F0F18170B582B00446036813F091
:1026B000010F2CD0994B5B6803F00C03042B1DD049
:1026C000964B5B6803F00C03082B12D06368B3F5DC
:1026D000803F41D0002B55D103F1804303F50433F3
:1026E0001A6822F480321A601A6822F480221A6072
:1026F00037E08A4B5B6813F4803FE7D0874B1B6859
:1027000013F4003F03D06368002B00F0BF812368FF
:1027100013F0020F75D0814B5B6813F00C0F5FD084
:102720007E4B5B6803F00C03082B54D02369002B0D
:1027300000F08A807A4B01221A60FEF7FFFD054601
:10274000764B1B6813F0020F75D1FEF7F7FD401BA7
:102750000228F5D903209EE1704A136843F48033C0
:102760001360636843B3FEF7E9FD05466B4B1B68D6
:1027700013F4003FCBD1FEF7E1FD401B6428F5D9EF
:10278000032088E1B3F5A02F09D0644B1A6822F426
:1027900080321A601A6822F480221A60E1E703F19D
:1027A0008043A3F53C331A6842F480221A601A6809
:1027B00042F480321A60D4E7FEF7C0FD0546574B5D
:1027C0001B6813F4003FA2D0FEF7B8FD401B64283D
:1027D000F5D903205FE1514B5B6813F4803FA5D12D
:1027E0004E4B1B6813F0020F03D02369012B40F0FE
:1027F0004F814A4A136823F0F803616943EAC10331
:102800001360236813F0080F33D0A369002B5CD04A
:10281000434B0122C3F88024FEF790FD05463F4B51
:102820005B6A13F0020F21D1FEF788FD401B0228DE
:10283000F5D903202FE1394A136823F0F8036169C1
:1028400043EAC1031360DCE7354B00221A60FEF750
:1028500075FD0546314B1B6813F0020FD1D0FEF712
:102860006DFD401B0228F5D9032014E10120FFF77C
:1028700001FF236813F0040F00F09680274BDB69FB
:1028800013F0805F34D1254BDA6942F08052DA616F
:10289000DB6903F080530193019B0125214B1B68E9
:1028A00013F4807F26D0E368012B3DD0002B53D159
:1028B00003F1804303F504331A6A22F001021A621D
:1028C0001A6A22F004021A6233E0154B0022C3F8A0
:1028D0008024FEF733FD0546104B5B6A13F0020FB0
:1028E000C7D0FEF72BFD401B0228F5D90320D2E00C
:1028F0000025D3E70B4A136843F480731360FEF797
:102900001DFD0646074B1B6813F4807FCBD1FEF7F5
:1029100015FD801B6428F5D90320BCE0001002409F
:1029200000004242007000405F4A136A43F0010316
:102930001362E36833B3FEF701FD06465A4B1B6A88
:1029400013F0020F2FD1FEF7F9FC801B41F2883300
:102950009842F3D903209EE0052B09D0524B1A6A06
:1029600022F001021A621A6A22F004021A62E0E7F7
:102970004D4B1A6A42F004021A621A6A42F00102CE
:102980001A62D6E7FEF7DAFC0646474B1B6A13F0DD
:10299000020F08D0FEF7D2FC801B41F28833984228
:1029A000F3D9032077E0E5B9E369002B72D03E4A02
:1029B000526802F00C02082A56D0022B17D03B4B6B
:1029C00000221A66FEF7BAFC0446374B1B6813F068
:1029D000007F47D0FEF7B2FC001B0228F5D9032088
:1029E00059E0314AD36923F08053D361DCE72F4BA0
:1029F00000221A66FEF7A2FC05462B4B1B6813F05B
:102A0000007F06D0FEF79AFC401B0228F5D9032070
:102A100041E0236AB3F5803F1AD023494B6823F481
:102A20007413226A606A024313434B601F4B0122F6
:102A30001A66FEF783FC04461B4B1B6813F0007FED
:102A40000ED1FEF77BFC001B0228F5D9032022E003
:102A5000154A536823F40033A1680B435360DCE745
:102A6000002018E0002016E0012B16D00E4B5B680A
:102A700003F48031226A914211D103F47013626A27
:102A800093420ED1002006E001207047012002E0B1
:102A9000012000E0002002B070BD0120FBE7012012
:102AA000F9E70120F7E700BF0010024000004242B2
:102AB00086B0174B0FCB0DF1180C0CE90F0040F24C
:102AC0000123ADF80430134B5B6803F00C02082AB5
:102AD00002D0114806B07047C3F3834218326A44EB
:102AE00012F8100C13F4803F0DD00A4B5B68C3F34F
:102AF000404318336B4413F8143C074A02FB00F0C0
:102B0000B0FBF3F0E6E7054B03FB00F0E2E700BFA4
:102B10004CB700080010024000127A0000093D0086
:102B2000002800F0A08070B50D460446524B1B688B
:102B300003F007038B420BD24F4A136823F00703BD
:102B40000B431360136803F007038B4240F08D8042
:102B5000236813F0020F17D013F0040F04D0474A74
:102B6000536843F4E0635360236813F0080F04D004
:102B7000424A536843F460535360404A536823F019
:102B8000F003A1680B435360236813F0010F31D0A9
:102B90006368012B20D0022B25D0384A126812F02E
:102BA000020F64D035494A6822F0030213434B6098
:102BB000FEF7C4FB0646314B5B6803F00C0362680A
:102BC000B3EB820F16D0FEF7B9FB801B41F28833BE
:102BD0009842F0D9032045E0284A126812F4003FD9
:102BE000E0D101203EE0254A126812F0007FD9D1E1
:102BF000012037E0204B1B6803F00703AB420AD9E2
:102C00001D4A136823F007032B431360136803F076
:102C10000703AB422DD1236813F0040F06D0174AE7
:102C2000536823F4E063E1680B435360236813F0B7
:102C3000080F07D0114A536823F46053216943EA0F
:102C4000C1035360FFF734FF0C4B5B68C3F30313FE
:102C50000B4AD35CD8400B4B18600B4B1868FEF73F
:102C600029FB002070BD012070470120FAE70120F8
:102C7000F8E70120F6E700BF002002400010024004
:102C80003CB700080000002008000020014B186835
:102C9000704700BF0000002070B582B00446036892
:102CA00013F0010F36D03F4BDB6913F0805F49D141
:102CB0003C4BDA6942F08052DA61DB6903F0805301
:102CC0000193019B0125384B1B6813F4807F3BD097
:102CD000344B1B6A13F4407313D0626802F44072E1
:102CE0009A420ED02F4A136A23F440702F490126CE
:102CF000C1F840640026C1F84064106213F0010F6F
:102D000036D1284A136A23F4407361680B43136277
:102D1000002D3ED1236813F0020F06D0214A5368DC
:102D200023F44043A1680B435360236813F0100F52
:102D300034D01C4A536823F48003E1680B4353608A
:102D400000202CE00025BEE7174A136843F4807387
:102D50001360FEF7F3FA0646134B1B6813F4807FEB
:102D6000B6D1FEF7EBFA801B6428F5D9032016E0F4
:102D7000FEF7E4FA06460B4B1B6A13F0020FC0D1B4
:102D8000FEF7DCFA801B41F288339842F3D9032026
:102D900005E0D36923F08053D361BBE7002002B084
:102DA00070BD00BF001002400070004000004242B1
:102DB00010B4036A046A24F001040462846924F0F4
:102DC000F00C4CEA021223F00A030B438261036207
:102DD00010BC704710B4036A23F0100303628469C7
:102DE000036A24F4704C4CEA023223F0A00343EA55
:102DF00001138261036210BC7047836823F0700383
:102E00000B4343F0070383607047000090F83D30A8
:102E1000DBB2012B22D1022380F83D300368114A36
:102E2000934210D0B3F1804F0DD0A2F5943293426B
:102E300009D002F58062934205D01A6842F001027F
:102E40001A60002070479A6802F00702062A07D02D
:102E50001A6842F001021A60002070470120704792
:102E600000207047002C01400368196A41F21112DA
:102E7000114208D1196A40F24442114203D11A6842
:102E800022F001021A60012380F83D3000207047D3
:102E900003681B4A90420AD0B0F1804F07D0A2F5D8
:102EA0009432904203D002F58062904203D123F025
:102EB00070034A681343124A90420AD0B0F1804F1F
:102EC00007D0A2F59432904203D002F5806290427E
:102ED00003D123F44073CA68134323F080034A6983
:102EE000134303608B68C3620B688362044B984290
:102EF00002D00123436170470B690363F9E700BF08
:102F0000002C014040B310B5044690F83D30F3B1B9
:102F1000022384F83D30214651F8040BFFF7B8FF37
:102F2000012384F8463084F83E3084F83F3084F83A
:102F3000403084F8413084F8423084F8433084F8DB
:102F4000443084F8453084F83D30002010BD80F8CE
:102F50003C30FEF773F9DBE70120704710B484685A
:102F600024F47F4C42EA03220A4342EA0C028260C4
:102F700010BC704790F83C30012B66D010B5044669
:102F8000012380F83C30022380F83D3002689368CA
:102F900023F47F4323F0770393600B68602B40D0CA
:102FA00022D8402B47D00BD9502B0ED1CA68496884
:102FB0000068FFF7FDFE50212068FFF71EFF04E0C8
:102FC000202B0CD008D9302B09D0012384F83D30B8
:102FD000002084F83C0010BD0BB1102BF5D1194630
:102FE0002068FFF70AFFF0E7702B0ED0B3F5005F03
:102FF000EBD1CB684A6889680068FFF7AFFF2268A9
:10300000936843F480439360DFE7CB684A6889683C
:103010000068FFF7A3FF2268936843F0770393608B
:10302000D3E7CA6849680068FFF7D4FE60212068CA
:10303000FFF7E3FEC9E7CA6849680068FFF7B8FE12
:1030400040212068FFF7D9FEBFE70220704700004B
:1030500090F83C20012A2CD010B40346012280F8BD
:103060003C20022280F83D2002685068946820F0DD
:10307000700C086840EA0C0050601A680E488242E2
:103080000AD0B2F1804F07D0A0F59430824203D02D
:1030900000F58060824204D124F080044968214315
:1030A0009160012283F83D20002083F83C0010BC91
:1030B00070470220704700BF002C014084B001A877
:1030C00080E80E00002004B0704703460020A3F8FB
:1030D00044004FF43F42A3F840207047B0F840301E
:1030E00023F47C535B045B0CA0F840300020704755
:1030F0000020704784B0844601A880E80E000123B8
:10310000ACF840300020ACF84000ACF84400ACF81B
:10311000500004B0704710B5034691F800C030F875
:103120002C2092B222F4EC4222F0700292B2C878C3
:10313000032861D8DFE800F0555C0258002048F20F
:10314000800E42EA0E0223F82C2091F800C033F8DA
:103150002C2092B222F4E04222F0700242EA0C02E9
:1031600042EA0E0223F82C200A7B002A40F0C48099
:103170004A78002A51D0B3F8502092B21A440C7801
:1031800002EB0412B1F806C04FEA5C0C4FEA4C0C9B
:10319000A2F800C40C7833F8242012F0400F0CD0B1
:1031A00033F8242092B222F4E04222F0700242F47A
:1031B000004242F0C00223F82420CA78012A1DD020
:1031C000097833F8212092B222F4E04222F0400242
:1031D00082F0200242F4004242F0800223F82120D3
:1031E0006AE042F40072AAE742F4C0620020A6E757
:1031F00042F480620020A2E70120A0E7097833F8BA
:10320000212092B222F4E04222F0400242F4004235
:1032100042F0800223F821204EE0B3F8502092B211
:103220001A440C7802EB0412B1F806C04FEA5C0CA9
:103230004FEA4C0CA2F808C4B3F8502092B21A44DA
:103240000C7802EB04120C69BCBBB2F80CC41FFA78
:103250008CFC2CF4F84C1FFA8CFCA2F80CC4B2F8CD
:103260000CC46FEA4C4C6FEA5C4C1FFA8CFCA2F861
:103270000CC40C7833F8242012F4804F0CD033F8AF
:10328000242092B222F4E04222F0700242F4404242
:1032900042F0800223F82420097833F8212092B2EA
:1032A00022F4804222F0700282F4405242F4004242
:1032B00042F0800223F8212010BD3E2C0DD84FEAA9
:1032C000540C14F0010F01D00CF1010C4FEA8C2CBE
:1032D0001FFA8CFCA2F80CC4CBE74FEA541C14F084
:1032E0001F0F01D10CF1FF3C6FEACC646FEA54442C
:1032F000A4B2A2F80C44BCE791F800C033F82C202B
:1033000092B222F4E04222F0700242F4014242F012
:10331000800223F82C20B3F8502092B21A4491F87E
:1033200000C002EB0C12B1F808C04FEA5C0C4FEA87
:103330004C0CA2F800C4B3F8502092B21A4491F891
:1033400000C002EB0C12B1F80AC04FEA5C0C4FEA65
:103350004C0CA2F808C44A78002A41D10C7833F802
:10336000242012F4804F0CD033F8242092B222F49F
:10337000E04222F0700242F4404242F0800223F820
:1033800024200C7833F8242012F0400F0CD033F8AE
:10339000242092B222F4E04222F0700242F4004271
:1033A00042F0C00223F8242091F800C033F82C200A
:1033B00092B222F4804222F0700282F4405248F22B
:1033C0008004224323F82C20097833F8212092B27C
:1033D00022F4E04222F04002224323F821206BE74E
:1033E0000C7833F8242012F4804F0CD033F82420CA
:1033F00092B222F4E04222F0700242F4404242F0E3
:10340000800223F824200C7833F8242012F0400F97
:103410000CD033F8242092B222F4E04222F0700261
:1034200042F4004242F0C00223F82420CA78012A64
:103430001ED00C7833F8242092B222F4E04222F01D
:10344000400282F0200242F4004242F0800223F85F
:103450002420097833F8212092B222F4804222F00D
:10346000700242F4004242F0800223F8212023E758
:103470000C7833F8242092B222F4E04222F0400289
:1034800042F4004242F0800223F82420E1E70B7B63
:10349000002B46D14B7813B30A7830F8223013F062
:1034A000400F0CD030F822309BB223F4E04323F0DD
:1034B000700343F4004343F0C00320F822300A783D
:1034C00030F822309BB223F4E04323F0400343F46E
:1034D000004343F0800320F82230002070470A7830
:1034E00030F8223013F4804F0CD030F822309BB2E9
:1034F00023F4E04323F0700343F4404343F080039C
:1035000020F822300A7830F822309BB223F480432E
:1035100023F0700343F4004343F0800320F822308B
:10352000DBE74B78002B4ED10A7830F8223013F4C9
:10353000804F0CD030F822309BB223F4E04323F0CC
:10354000700343F4404343F0800320F822300A78AC
:1035500030F8223013F0400F0CD030F822309BB2FC
:1035600023F4E04323F0700343F4004343F0C0032B
:1035700020F822300A7830F822309BB223F4E0435E
:1035800023F0700343F4004343F0C00320F82230DB
:103590000A7830F822309BB223F4804323F0700382
:1035A00048F2800C43EA0C0320F822300A7830F805
:1035B00022309BB223F4E04323F0400343EA0C03A0
:1035C00020F8223089E70A7830F8223013F4804F4F
:1035D0000CD030F822309BB223F4E04323F0700388
:1035E00043F4404343F0800320F822300A7830F857
:1035F000223013F0400F0CD030F822309BB223F46D
:10360000E04323F0700343F4004343F0C00320F889
:1036100022300A7830F822309BB223F4E04323F0C2
:10362000700343F4404343F0800320F822300A78CB
:1036300030F822309BB223F4E04323F0400348F2F9
:10364000800C43EA0C0320F822300A7830F822304C
:103650009BB223F4804323F0700343EA0C0320F869
:1036600022303AE74B788BB10A7830F822309BB29F
:1036700023F4E04323F0400383F0100343F40043BA
:1036800043F0800320F82230002070470A7830F899
:1036900022309BB223F4804323F0700383F48053E1
:1036A00043F4004343F0800320F82230ECE70B7B27
:1036B000002B4BD14B7833B30A7830F8223013F01B
:1036C000400F0CD030F822309BB223F4E04323F0BB
:1036D000700343F4004343F0C00320F82230CB785A
:1036E000012B33D00A7830F822309BB223F4E04328
:1036F00023F0400383F0200343F4004343F08003AE
:1037000020F8223022E00A7830F8223013F4804F7B
:103710000CD030F822309BB223F4E04323F0700346
:1037200043F4404343F0800320F822300A7830F815
:1037300022309BB223F4804323F0700383F4405380
:1037400043F4004343F0800320F822300020704708
:1037500011B98023A0F84C3000207047002070473A
:1037600000207047B0F8440080B2704700207047D6
:1037700001335B0800EB420000F5806008E00A7846
:1037800091F801C042EA0C2220F8042B0231013BDF
:10379000002BF4D1704770B505460C464B78012BD1
:1037A00037D00A7B002A40F026838B690A6993424E
:1037B00040F204839B1A8B61B5F850309BB22B44C6
:1037C000217803EB0113002A40F0FC82B3F80C24AB
:1037D00092B222F4F84292B2A3F80C24B3F80C246B
:1037E0006FEA42426FEA524292B2A3F80C24227866
:1037F00035F822309BB223F4804323F0700383F426
:10380000405343F4004343F0800325F82230002066
:1038100070BD8E690A69964200D91646237B002B3B
:1038200039D0E378022B58D0227835F822309BB279
:1038300023F4E04323F0700343F4014343F0800397
:1038400025F82230236A9B1B2362237835F8232036
:1038500012F0400F00F026826278002A40F0CA8100
:10386000B5F8502092B22A4402EB0313002E40F028
:10387000A881B3F80C2492B222F4F84292B2A3F8D1
:103880000C24B3F80C246FEA42426FEA524292B21F
:10389000A3F80C24B0E1B6B23346E2886169284649
:1038A000FFF766FFB5F850309BB22B44227803EB4C
:1038B0000213A3F80464227835F822309BB223F473
:1038C000E04323F0400383F0300343F4004343F02C
:1038D000800325F8223000209AE7236A9A4280F07C
:1038E0005281227835F822309BB223F4E04323F052
:1038F000700343F4014343F0800325F82230236A28
:103900009B1B2362237835F8232012F0400F00F030
:103910009D8062788ABBB5F8502092B22A4402EBAF
:1039200003138EB9B3F80C2492B222F4F84292B287
:10393000A3F80C24B3F80C246FEA42426FEA524217
:1039400092B2A3F80C241AE03E2E09D8720816F0A1
:10395000010F00D00132920292B2A3F80C240EE0C3
:10396000720916F01F0F00D1013A6FEAC2626FEAC6
:10397000524292B2A3F80C2401E0012A2BD0B3B238
:10398000628961692846FFF7F3FE63693344636126
:10399000236A2269934228D99B1B23626378002BF8
:1039A00040D1B5F850309BB22B44227803EB021380
:1039B000FEB9B3F8042492B222F4F84292B2A3F80A
:1039C0000424B3F804246FEA42426FEA524292B2EE
:1039D000A3F8042428E0B5F8502092B22A4402EB60
:1039E0000313B2B2A3F80C24C9E7002222621E46D8
:1039F000D4E73E2E09D8720816F0010F00D001322C
:103A0000920292B2A3F804240EE0720916F01F0F7E
:103A100000D1013A6FEAC2626FEA524292B2A3F851
:103A2000042401E0012B06D0B3B222896169284643
:103A3000FFF79EFE3FE7B5F850309BB22B4422784B
:103A400003EB0213B2B2A3F80424EDE762788ABB59
:103A5000B5F8502092B22A4402EB03138EB9B3F8A2
:103A6000042492B222F4F84292B2A3F80424B3F8E8
:103A700004246FEA42426FEA524292B2A3F804244D
:103A80001AE03E2E09D8720816F0010F00D001325C
:103A9000920292B2A3F804240EE0720916F01F0FEE
:103AA00000D1013A6FEAC2626FEA524292B2A3F8C1
:103AB000042401E0012A2BD0B3B22289616928468F
:103AC000FFF756FE636933446361236A22699342B8
:103AD00028D99B1B23626378002B40D1B5F8503066
:103AE0009BB22B44227803EB0213FEB9B3F80C24EB
:103AF00092B222F4F84292B2A3F80C24B3F80C2448
:103B00006FEA42426FEA524292B2A3F80C2428E0D4
:103B1000B5F8502092B22A4402EB0313B2B2A3F8D4
:103B20000424C9E7002222621E46D4E73E2E09D8AB
:103B3000720816F0010F00D00132920292B2A3F87F
:103B40000C240EE0720916F01F0F00D1013A6FEA43
:103B5000C2626FEA524292B2A3F80C2401E0012B38
:103B600006D0B3B2628961692846FFF701FEA2E67A
:103B7000B5F850309BB22B44227803EB0213B2B25B
:103B8000A3F80C24EDE7217835F8212092B222F435
:103B9000E24222F0700242F4004242F0800225F834
:103BA0002120B5F8502092B22A44217802EB01126C
:103BB0009BB2A2F80434228961692846FFF7D8FD38
:103BC00079E63E2E09D8720816F0010F00D00132B6
:103BD000920292B2A3F80C240EE0720916F01F0FA5
:103BE00000D1013A6FEAC2626FEA524292B2A3F880
:103BF0000C2401E0012A26D0B3B26289616928460B
:103C0000FFF7B6FD636933446361236A2269934217
:103C100023D99B1B2362002E3FF44DAE63786BBB10
:103C2000B5F850309BB22B44227803EB02133E2EA2
:103C300017D8720816F0010F00D00132920292B22A
:103C4000A3F804241CE0B5F8502092B22A4402EBF9
:103C50000313B2B2A3F80C24CEE7002222621E4660
:103C6000D9E7720916F01F0F00D1013A6FEAC2625C
:103C70006FEA524292B2A3F8042401E0012B06D06D
:103C8000B3B2228961692846FFF772FD13E6B5F8E1
:103C900050309BB22B44227803EB0213B2B2A3F84C
:103CA0000424EDE762788ABBB5F8502092B22A442A
:103CB00002EB03138EB9B3F8042492B222F4F84253
:103CC00092B2A3F80424B3F804246FEA42426FEAE4
:103CD000524292B2A3F804241AE03E2E09D8720888
:103CE00016F0010F00D00132920292B2A3F8042420
:103CF0000EE0720916F01F0F00D1013A6FEAC2629E
:103D00006FEA524292B2A3F8042401E0012A26D0BD
:103D1000B3B2228961692846FFF72AFD63693344FB
:103D20006361236A2269934223D99B1B2362002E7D
:103D30003FF4C1AD63786BBBB5F850309BB22B44F8
:103D4000227803EB02133E2E17D8720816F0010FEB
:103D500000D00132920292B2A3F80C241CE0B5F814
:103D6000502092B22A4402EB0313B2B2A3F8042407
:103D7000CEE7002222621E46D9E7720916F01F0F15
:103D800000D1013A6FEAC2626FEA524292B2A3F8DE
:103D90000C2401E0012B06D0B3B262896169284688
:103DA000FFF7E6FC87E5B5F850309BB22B4422784C
:103DB00003EB0213B2B2A3F80C24EDE700228A61F0
:103DC0001A46F9E43E2A09D8510812F0010F00D032
:103DD0000131890289B2A3F80C1408E5510912F0E7
:103DE0001F0F00D101396FEAC1616FEA514189B2F9
:103DF000A3F80C14FBE4CA78022A45D0012A40F04B
:103E0000208189692269914240F2D480891AA16196
:103E1000D3B9B5F850309BB22B44217803EB011392
:103E2000002A40F0CB80B3F8041489B221F4F841A1
:103E300089B2A3F80414B3F804146FEA41416FEA9D
:103E4000514189B2A3F804146378002B40F0EA8052
:103E5000B5F850309BB22B44217803EB0113002AB4
:103E600040F0C580B3F80C2492B222F4F84292B22A
:103E7000A3F80C24B3F80C246FEA42426FEA5242D2
:103E800092B2A3F80C24B2E4CBB9B0F850309BB294
:103E900003440A7803EB02130A6972BBB3F80424E3
:103EA00092B222F4F84292B2A3F80424B3F80424A4
:103EB0006FEA42426FEA524292B2A3F80424637856
:103EC000002B4CD1B5F850309BB22B44227803EB39
:103ED0000213226952BBB3F80C2492B222F4F842C6
:103EE00092B2A3F80C24B3F80C246FEA42426FEAB2
:103EF000524292B2A3F80C2433E03E2A09D851086A
:103F000012F0010F00D001318A0292B2A3F804240A
:103F1000D5E7510912F01F0F00D101396FEAC162D4
:103F20006FEA524292B2A3F80424C8E73E2A09D8A5
:103F3000510812F0010F00D001318A0292B2A3F8A9
:103F40000C240EE0510912F01F0F00D101396FEA65
:103F5000C1626FEA524292B2A3F80C2401E0012B35
:103F60001DD0E369002B3FF442AC227835F82210D3
:103F700044F2400303EA01008B4302D000287FF49F
:103F800036AC35F822309BB223F4E04323F07003C3
:103F900043F4004343F0C00325F8223027E4B5F88A
:103FA00050309BB22B44227803EB0213228AA3F8F1
:103FB0000C24D6E70022A2610A4629E73E2A09D846
:103FC000510812F0010F00D00131890289B2A3F823
:103FD000041439E7510912F01F0F00D101396FEABB
:103FE000C1616FEA514189B2A3F804142CE73E2A5B
:103FF0000AD8510812F0010F00D001318A0292B2A2
:10400000A3F80C24FFF7F3BB510912F01F0F00D1E6
:1040100001396FEAC1626FEA524292B2A3F80C24EE
:10402000FFF7E5BB012B7FF4E2ABB5F850309BB254
:104030002B44217803EB011392B2A3F80C24FFF771
:10404000D6BB0120FFF7E4BB10B45C0800EB4200D4
:1040500000F5806007E030F8042B0A70C2F30722F5
:104060004A700231013C002CF5D113F0010F01D050
:1040700003880B7010BC704710B5D0F8B842D0F868
:10408000BC325BB194F80002FF2807D09B6894F81B
:10409000012221469847FF2384F80032002010BDFA
:1040A00043230380004870475000002043230380CF
:1040B0000048704794000020432303800048704765
:1040C0000C0000200A2303800048704710010020E4
:1040D00038B50446D0F8B85201F048F8C5F80C02DB
:1040E000D4F8B8324BB1D4F8BC32DB6805F50371B3
:1040F000D5F804029847002038BD0220FCE710B52F
:10410000D0F8B822D0F8C042F2B101EB810300EB45
:104110008303DB694BB101EB810C04EBCC04A46B92
:10412000B3FBF4FC04FB1C3323B10023C2F81432AC
:10413000002010BD01EB810300EB83030022DA6154
:10414000134601F003F8F3E70220F2E7F0B583B07D
:1041500006460C46D0F8B87200238DF80730ADF84B
:1041600004300B7813F0600527D0202D53D1CA8876
:10417000DAB113F0800F0CD0D0F8BC329B6839460E
:1041800060789847E2883946304600F099FD00256E
:1041900044E04B7887F800328B7987F80132CA887F
:1041A000394600F0A2FD002538E0D0F8BC329B680B
:1041B000002248789847002530E04F780A2F14D025
:1041C0000B2F20D01FB100F06EFA022526E090F8E8
:1041D0009C32032B03D000F066FA02251EE0022277
:1041E00001A900F06DFD3D4618E090F89C32032BCC
:1041F00003D000F058FA022510E001220DF107016A
:1042000000F05EFD0AE090F89C32032B06D000F02F
:104210004AFA022502E000F046FA0225284603B0D9
:10422000F0BD38B50446812100F059FF0025E56254
:104230000121204600F053FFC4F86C518221204632
:1042400000F04DFF2564D4F8B8324BB1D4F8BC323D
:104250005B689847D4F8B80200F092FFC4F8B852EF
:10426000002038BD70B50446037CABBB4FF400732F
:104270000222812100F028FF0125E5624FF400733E
:1042800002222946204600F01FFFC4F86C51082383
:1042900003228221204600F017FF012323644FF4FC
:1042A000077000F069FF0546C4F8B80268B3D4F897
:1042B000BC321B6898470023C5F81432C5F8183281
:1042C000267CCEB94FF40073D5F804220121204694
:1042D00000F044FF304670BD40230222812100F0EF
:1042E000F3FE0125E562402302222946204600F024
:1042F000EBFEC4F86C51CAE74023D5F80422012133
:10430000204600F02BFF0026E4E70126E2E719B182
:10431000C0F8BC120020704702207047D0F8B832B5
:10432000C3F80812C3F8102200207047D0F8B83242
:10433000C3F8041200207047D0F8B8229AB108B52B
:10434000D2F814320BB1012008BD0123C2F8143297
:10435000D2F8103203639BB2D2F80822812100F018
:10436000F5FE0020F0E702207047D0F8B82292B1A5
:1043700008B5037C43B94FF40073D2F8042201213D
:1043800000F0ECFE002008BD4023D2F804220121F9
:1043900000F0E4FEF6E70220704798B108B5034646
:1043A000D0F8B40210B10020C3F8B40209B1C3F8C8
:1043B000B012012183F89C121A70184600F03AFEE0
:1043C000002008BD0220704719B1C0F8B4120020C7
:1043D00070470220704708B500F06EFE002008BD4F
:1043E00008B5D0F8B4322BB11B68984700B908BDA6
:1043F0000220FCE70220FAE708B5D0F8B4325B6887
:104400009847002008BD38B5044600F52A752846AF
:1044100000F035F90123C4F89432B4F8AE32C4F890
:10442000983294F8A81201F01F03012B0ED0022B32
:1044300011D02BB101F08001204600F058FE03E0BE
:104440002946204600F0CAFA002038BD29462046F9
:1044500000F0F8FAF8E72946204600F023FBF3E7DE
:1044600038B504460D4691BB1346D0F89422032A72
:1044700003D0052A24D0084633E0D0F86011D0F8E4
:10448000642191420DD9891AC0F860118A4206D977
:104490008AB21946204600F037FC284621E092B245
:1044A000F7E7D0F8B4321B691BB190F89C22032ABD
:1044B00004D0204600F030FC284612E09847F8E788
:1044C0000021C0F8941200F012FE284609E0D0F84E
:1044D000B4329B6933B190F89C22032A04D19847E7
:1044E000002038BD0220FCE70220FAE738B5044678
:1044F0000D46002953D11346D0F89422022A0CD03D
:10450000042A00D01AB98021204600F0F0FD94F86A
:10451000A032012B3ED0284638BD026A416A8A4249
:104520001BD8C269B2FBF1F301FB13232BB99142F3
:1045300003D8D0F898329A421CD3D4F8B432DB684E
:104540001BB194F89C22032A21D08021204600F040
:10455000CEFD204600F0EBFBD9E7521A026292B280
:10456000194600F0BAFB00231A461946204600F00F
:10457000F5FDCCE70022114600F0AFFB0021C4F8A6
:1045800098120B460A46204600F0E8FDBFE7204699
:104590009847DAE7002384F8A0322846BCE7D0F831
:1045A000B4325B6933B190F89C22032A04D1984756
:1045B0000020B1E70220AFE70220ADE770B5044666
:1045C00040230022114600F07FFD0125C4F8585118
:1045D0004026C4F86461334600228021204600F062
:1045E00073FDA561666284F89C520023C4F894327E
:1045F0006360C4F8A432D4F8B8322BB1D4F8B43222
:104600005B68002120469847002070BD017400209F
:10461000704790F89C3280F89D32042380F89C32D9
:104620000020704790F89C32042B01D00020704786
:1046300090F89D3280F89C32F8E708B590F89C32EB
:10464000032B01D0002008BDD0F8B432DB69002B69
:10465000F8D09847F6E70346002002E00130C0B2E8
:1046600001331A78002AF9D1704708B54B88012B1D
:1046700000D008BDC0F8A43200F04EFBF9E70B787B
:1046800003704B7843708B78CA7803EB0223438026
:104690000B794A7903EB022383808B79CA7903EB88
:1046A0000223C380704710B50446802100F01FFD2F
:1046B0000021204600F01BFD10BD30B583B005463B
:1046C0000C460023ADF806304A88130A013B062B3E
:1046D00000F2A480DFE803F004182CA2A286930065
:1046E000D0F8B0321B680DF10601007C9847BDF888
:1046F00006201AB1E388002B40F09480E388002B59
:1047000000F09A8003B030BD037C43B9D0F8B432D6
:104710009B6A0DF10600984702234370E7E7D0F843
:10472000B432DB6A0DF10600984702234370DEE7DE
:10473000D2B2052A52D8DFE802F003101D2A37440E
:10474000D0F8B0325B6823B10DF10601007C9847C8
:10475000CDE72146FFF7A7FFD4E7D0F8B0329B683A
:1047600023B10DF10601007C9847C0E72146FFF711
:104770009AFFC7E7D0F8B032DB6823B10DF106012C
:10478000007C9847B3E72146FFF78DFFBAE7D0F8E2
:10479000B0321B6923B10DF10601007C9847A6E7F2
:1047A0002146FFF780FFADE7D0F8B0325B6923B157
:1047B0000DF10601007C984799E72146FFF773FF4A
:1047C000A0E7D0F8B0329B6923B10DF10601007C5F
:1047D00098478CE72146FFF766FF93E72146FFF7EE
:1047E00062FF8FE7037C33B9D0F8B4325B6B0DF115
:1047F000060098477BE72146FFF755FF82E7037CD9
:1048000043B9D0F8B4321B6B0DF10600984707236B
:1048100043706CE72146FFF746FF73E72146FFF739
:1048200042FF6FE79A4228BF1A46ADF806200146BC
:10483000284600F045FA61E7284600F06DFA61E786
:1048400038B504468B88F3B9CB88E3B94B887F2B06
:1048500019D803F07F0590F89C32032B0CD080F818
:104860009E52294600F06AFC204600F055FA35B108
:10487000022384F89C3209E0FFF715FF06E00123CC
:1048800084F89C3202E02046FFF70DFF38BD00009F
:1048900038B504460D468978284B197001290ED881
:1048A00090F89C32022B0ED0032B21D02946FFF723
:1048B000FAFE224B19782046FFF79EFD02E02946BA
:1048C000FFF7F1FE38BD81B14160032380F89C32CF
:1048D000FFF786FD022803D0204600F01DFAF1E71D
:1048E00029462046FFF7DFFEECE700F015FAE9E77E
:1048F00089B1436899421DD0D9B2FFF77DFD0F4BB6
:10490000197861602046FFF76BFD02280DD0204624
:1049100000F002FAD6E7022380F89C324160FFF7EC
:104920006BFD204600F0F8F9CCE729462046FFF75A
:10493000BAFEC7E700F0F0F9C4E700BFBC080020EA
:1049400008B5CB88012B0AD190F89C32022B09D9EB
:10495000032B09D10122011D00F0B2F901E0FFF79C
:10496000A2FE08BD5BB213B9FFF79DFEF9E7014651
:10497000002341F8083F012200F0A2F9F1E708B551
:1049800090F89C32013B022B12D8CB88022B0CD121
:104990000123C360D0F8A4320BB10323C360022209
:1049A00000F10C0100F08CF908BDFFF77CFEFBE77D
:1049B000FFF779FEF8E708B590F89C32013B022B2F
:1049C00009D84B88012B00D008BD0023C0F8A432C1
:1049D00000F0A2F9F8E7FFF766FEF5E708B50B78F7
:1049E00003F06003202B05D0402B03D043B1FFF729
:1049F0005AFE03E0D0F8B4329B689847002008BD07
:104A00004B78092B1BD8DFE803F011171A141A088A
:104A1000051A0E0BFFF751FEF0E7FFF711FFEDE768
:104A2000FFF736FFEAE7FFF78BFFE7E7FFF7A7FFA0
:104A3000E4E7FFF71AFEE1E7FFF7BDFFDEE7FFF768
:104A400032FEDBE738B505460C460B7803F0600311
:104A5000202B06D0402B04D01BB1FFF724FE0020F2
:104A600038BD95F89C32013B022B16D82379012BD7
:104A70000ED8D5F8B4329B68214628469847E3887B
:104A8000002BECD10028EAD1284600F045F9E6E7F2
:104A900021462846FFF707FEE1E721462846FFF7B3
:104AA00002FEDCE770B505468B880C7804F06004E4
:104AB000202C07D0DAB2402C04D05CB1FFF7F3FD14
:104AC000002405E0D5F8B4329B68284698470024B6
:104AD000204670BD202C09D04E78012E33D0032EF5
:104AE0000AD0002E55D0FFF7DEFDF1E7D0F8B43242
:104AF0009B6898470446EBE790F89C32022B04D061
:104B0000032B11D0FFF7CFFDE2E70AB1802A03D1D2
:104B10002846FFF7C8FDDBE7114600F0E8FA8021E0
:104B2000284600F0E4FAD3E74B8823B91AB1802A6B
:104B300001D0CB881BB1284600F0EEF8C8E711463B
:104B400000F0D5FAF7E790F89C32022B04D0032B43
:104B500011D0FFF7A8FDBBE70AB1802A03D1284690
:104B6000FFF7A1FDB4E7114600F0C1FA8021284605
:104B700000F0BDFAACE74B88002BA9D112F07F0FF3
:104B800003D1284600F0C8F8A2E7114600F0B7FAB2
:104B9000F7E790F89C02022806D0032829D028467F
:104BA000FFF781FD344693E70AB1802A13D113F051
:104BB000800F15D102F07F0202EB8202910001F515
:104BC000A8712944043100230B600222284600F01A
:104BD00077F834467CE72846FFF765FD344677E7EB
:104BE00002F07F0202EB820291001031294404316D
:104BF000E9E75BB2002B1FDB02F00F0000EB800047
:104C000005EB8000D0F8580120B3002B27DB02F021
:104C10007F0303EB83039C0004F5A8742C44043445
:104C20000AB1802A24D1002323600222214628468B
:104C300000F046F834464BE702F00F0000EB80002E
:104C400005EB800080690028DFD12846FFF72BFDA7
:104C500034463DE72846FFF726FD344638E702F0A4
:104C60007F0303EB83039C0010342C440434D7E708
:104C70001146284600F04BFA10B101232360D4E717
:104C800000232360D1E7D0B170B50D461646044627
:104C9000FFF7E1FC431C5B009BB233802B700323C6
:104CA0006B70022307E001345A1CD2B2E85402337D
:104CB000DBB20021A95420780028F4D170BD7047E0
:104CC00008B513460222C0F89422C36103620A4663
:104CD000002100F03BFA002008BD08B513460A4643
:104CE000002100F033FA002008BD08B51346032266
:104CF000C0F89422C0F85C31C0F860310A46002147
:104D000000F02CFA002008BD08B513460A46002121
:104D100000F024FA002008BD08B50423C0F894323E
:104D200000231A46194600F011FA002008BD08B504
:104D30000523C0F8943200231A46194600F00EFAF3
:104D4000002008BD08B500220F491048FFF725FBD9
:104D500070B90F490D48FFF737FB60B90D490B4893
:104D6000FFF7D5FA50B90948FFF735FB48B908BD38
:104D7000FCF7CCF8EDE7FCF7C9F8EFE7FCF7C6F86D
:104D8000F1E7FCF7C3F8F2E760010020C00800205B
:104D9000D80000201C010020002070470020704730
:104DA00010B50146044C2046FFF7C0FA2046FFF735
:104DB000DCFA002010BD00BFC008002010B5064C72
:104DC000002206492046FFF7A9FA05492046FFF7C9
:104DD000ADFA002010BD00BFC0080020840B0020E9
:104DE0006C0F0020094BD3F8B832D3F814320BB152
:104DF0000120704710B5054C0A4601462046FFF7D2
:104E00008DFA2046FFF798FA10BD00BFC0080020B9
:104E100012230B80004870474C01002004230B80B4
:104E20000048704748010020002393421ED200B57D
:104E300010E00CF1370C01F813C000014FEA430CED
:104E40000CF1010C4FF0000E01F80CE00133DBB265
:104E5000934209D24FEA107CB0F1204FE9D20CF115
:104E6000300C01F813C0E8E75DF804FB7047000060
:104E700038B50B4BD3F8E807D3F8EC47D3F8F03745
:104E8000C01800D138BD074D08222946FFF7CCFFD6
:104E9000042205F110012046FFF7C6FFF2E700BF2C
:104EA00000F0FF1F2E01002008B51A230B80FFF72A
:104EB000DFFF014808BD00BF2C01002008B50A46ED
:104EC00028B905490548FFF7DEFE034808BD024939
:104ED0000248FFF7D8FEF8E75413002060B7000837
:104EE00010B50A46034C21460348FFF7CCFE204686
:104EF00010BD00BF5413002078B7000808B50A465B
:104F000028B905490548FFF7BEFE034808BD024918
:104F10000248FFF7B8FEF8E7541300208CB70008EA
:104F200008B50A4628B905490548FFF7ACFE03480D
:104F300008BD02490248FFF7A6FEF8E75413002017
:104F400098B70008022805D8DFE800F00504020041
:104F5000012070470220704702680E4B9A4200D031
:104F6000704700B583B003F5DA33DA6942F4000222
:104F7000DA61DB6903F400030193019B002211460F
:104F80001420FCF74DFA1420FCF75AFA03B05DF830
:104F900004FB00BF005C004008B500F52C71D0F8A0
:104FA000E802FFF730FA08BD08B501EB810300EB1A
:104FB000C303D3F87C21D0F8E802FFF751FA08BD0B
:104FC00008B501EB810300EBC303DA6BD0F8E8020C
:104FD000FFF78CFA08BD08B5D0F8E802FFF72DFB03
:104FE00008BD10B504468368022B09D10121D4F80D
:104FF000E802FFF70BFBD4F8E802FFF7DFFA10BD79
:10500000FBF784FFF2E7000010B50446D0F8E80291
:10501000FFF7FFFAA36923B1024A136943F00603BD
:10502000136110BD00ED00E008B5D0F8E802FFF70D
:10503000F9FA08BD10B504461D48C0F8E842C4F8A6
:10504000C0021C4B036008234360022383600023DB
:105050008361C3610362FCF7DFFB30BB18230022CE
:105060001146D4F8C002FDF7E8FA58230022802147
:10507000D4F8C002FDF7E1FAC02300228121D4F860
:10508000C002FDF7DAFA4FF4887300220121D4F848
:10509000C002FDF7D2FA4FF4807300228221D4F8C7
:1050A000C002FDF7CAFA002010BDFBF72FFFD5E7BD
:1050B00074170020005C004008B5D0F8C002FCF76F
:1050C00037FCFFF73FFF08BD08B594461A46634614
:1050D000D0F8C002FDF773F9FFF734FF08BD08B53B
:1050E000D0F8C002FDF7ADF9FFF72CFF08BD08B5F9
:1050F000D0F8C002FDF72AFAFFF724FF08BD08B573
:10510000D0F8C002FDF75EFAFFF71CFF08BDD0F82B
:10511000C03211F0800F08D101F07F0101EB810155
:1051200003EBC10393F86A01704701F07F0101317D
:1051300001EB810103EBC1039878704708B5D0F803
:10514000C002FDF73EF8FFF7FDFE08BD08B5D0F838
:10515000C002FDF7D3F9FFF7F5FE08BD08B5D0F89A
:10516000C002FDF7A0F9FFF7EDFE08BD08B5D0F8C5
:10517000C002FDF7BAF908BD004870475415002079
:1051800070477047024A0349034800F0C9B800BF9E
:105190007C0100202D7B0008900100200C4B416811
:1051A00010B59942044601D002F0C0FCA168094B39
:1051B000994202D0204602F0B9FCE168064B9942C0
:1051C00004D02046BDE8104002F0B0BC10BD00BFC6
:1051D000601A0020C81A0020301B00202DE9F84377
:1051E00000250423304C314A3149DFF8C890DFF8FC
:1051F000C880324F324E116004F15C00294608220B
:10520000C4E90335C4E90055C4E90555A5606566E0
:1052100000F012F904F15800C4E90749C4E909870C
:10522000E66200F0DBF9274B2946082204F1C400AE
:105230006367C4E91A55C4E91E552567C4F8CC5004
:10524000C4F8805000F0F8F804F1680304F1C000DD
:10525000C4F88430C4E92298C4E9247600F0BEF989
:10526000194B294604F596700822C4F8DC30C4E9CD
:105270003455C4E93855C4F8D850C4F83451C4F88A
:10528000E85000F0D9F804F1D003C4E93D87C4F830
:10529000F09004F59470C4F8FC60C4F8EC30BDE8FC
:1052A000F84300F09BB900BF601A0020981B002053
:1052B00085510008A9530008CD5300080D5400087B
:1052C00031540008090001001200020010B5044624
:1052D0000A4800F087F9636B23B9094B094A1B6838
:1052E000626323B1BDE81040044800F07DB9FFF7C8
:1052F00075FFBDE81040014800F076B9A81B0020FA
:10530000981B00209D510008014800F06BB900BFB8
:10531000A81B0020014800F067B900BFA81B0020AF
:105320002DE9F8434FF0000980460F461646D6E9AE
:105330000154013D10D4A389013D012B08D9B4F9D2
:105340000E30013304D021464046B84749EA0009EF
:105350006B1C04F16804EED13668002EE7D1484694
:10536000BDE8F8830EB430B504466FF000459CB03C
:105370000B4A1FAB0B49059253F8042B086802A98E
:10538000CDE9013404950795069400F085FD0022CF
:10539000029B1A701CB0BDE8304003B0704700BFDC
:1053A0000802FFFF8801002010B50C46B1F90E106D
:1053B00000F0BAF8002803DB236D0344236510BD19
:1053C000A38923F48053A38110BD00BF2DE9F041D0
:1053D0000C46B1F90C101F46CB05054616460BD4FA
:1053E00021F48051A1813B4632462846B4F90E1083
:1053F000BDE8F04100F0AEB8B4F90E10022300226F
:1054000000F07CF8B4F90C10EAE700BF10B50C46C8
:10541000B1F90E1000F072F8B4F90C30421C0EBF56
:1054200023F4805343F480532065A38110BD00BF53
:10543000B1F90E1000F050B870B5860747D0541E71
:10544000002A3ED00346CAB201E0013C39D303F83A
:10545000012B9D07F9D1032C2CD9CDB205EB0525E5
:105460000F2C1A4605EB054534D9A4F1100C2CF08D
:105470000F0603F1100EB6444FEA1C1C1560556070
:105480009560D56010327245F8D10CF1010214F02C
:105490000C0F03EB021204F00F0C13D0ACF1040359
:1054A00023F003030433134442F8045B9A42FBD114
:1054B0000CF003042CB1C9B21C4403F8011B9C423C
:1054C000FBD170BD64461346002CF4D1F9E70346C6
:1054D0001446C0E7A446E1E7002238B5064D04466D
:1054E00008462A60FBF740FE431C00D038BD2B68FD
:1054F000002BFBD0236038BD9C1B002038B50C4628
:10550000114600228446074D20462A601A4664460A
:10551000FBF734FE431C00D038BD2B68002BFBD0BA
:10552000236038BD9C1B002038B50C461146002274
:105530008446074D20462A601A466446FBF7F6FD6E
:10554000431C00D038BD2B68002BFBD0236038BD36
:105550009C1B002038B50C46114600228446074D9E
:1055600020462A601A466446FBF7F0FD431C00D033
:1055700038BD2B68002BFBD0236038BD9C1B00205E
:10558000014B1868704700BF8801002070B50F4BB1
:105590000F4DAB42A3EB050607D00024B61055F81B
:1055A000043B01349847A642F9D806F0AFF8094DFC
:1055B000094B5E1BAB424FEAA60606D0002455F805
:1055C000043B01349847A642F9D870BD94BB00084B
:1055D00094BB000894BB00089CBB0008704700BF48
:1055E000704700BF704700BF704700BF20F0030145
:1055F00010F00300C0F1000051F8043B00F1040C6E
:105600004FEACC0C6FF000021CBF22FA0CF21343DD
:105610004FF0010C4CEA0C2C4CEA0C4CA3EB0C02A6
:1056200022EA030212EACC1204BF51F8043B043010
:10563000F4D0C2F1000102EA0102B2FA82F2C2F130
:105640001F0200EBD2007047024B13B1024800F07A
:1056500005B8704700000000117E000800230146D5
:105660001A46184602F07ABC2DE9F843064608208F
:10567000894602F0E1FB0546DFF89880304600F0ED
:10568000FFFBD8F808305F6827F00307A7F1110483
:10569000A4EB09042C44B4FBF5F4013C05FB04F431
:1056A000A54208DC0021304602F0A0FBD8F8083003
:1056B0003B44984205D0304600F0E8FB0020BDE8AE
:1056C000F8833046614202F091FB01300FD0124A5C
:1056D000D8F808303F1B47F001075F601368304679
:1056E0001B1B136000F0D2FB0120BDE8F8830021F2
:1056F000304602F07BFBD8F80820831A0F2BDADD46
:1057000043F001035360054B03491B68C01A08604E
:10571000D1E700BFC0020020B01B0020B40200206F
:1057200000297BD0F8B50C46064600F0A9FB54F8DA
:10573000042C764FA4F1080522F001016818D7F86F
:1057400008C04368844523F0030300F08480D20737
:10575000436034D454F8082C07F10804AD1A1144FE
:10576000AA68A24269D000EB030CDCF804E0D5F88B
:105770000CC01EF0010FC2F80CC0CCF8082000F0DD
:10578000838041F001036B600160B1F5007F22D29C
:105790000122CB0849098A40796801330A437A60BB
:1057A00057F8331007EBC302083AC5E9021247F86D
:1057B0003350CD603046BDE8F84000F067BBC218FA
:1057C0005268D2072BD541F00103B1F5007F44F8B0
:1057D000043C0160DCD3B1F5206F4FEA512355D270
:1057E0008B0903F1390003F13802C300F818FB58A4
:1057F0000838984203D163E09B68984204D05A6805
:1058000022F003028A42F7D8D868C5E902308560E1
:105810003046DD60BDE8F84000F038BB7047194401
:1058200007F108048368A34241D0C268DA6093603C
:1058300041F001036B606950A7E7C2185268D407B2
:105840005FD40B44D0E90212CA60916043F00102B8
:105850006A60EB50AEE70B44D10707D454F8082C2C
:10586000AD1A1344D5E90212CA60916043F00102F7
:105870006A60274ABD6012689A429BD8254B304621
:105880001968FFF7F1FE95E71944CBE7142B08D907
:10589000542B1DD80B0B03F16F0003F16E02C300F4
:1058A000A4E703F15C0003F15B02C3009EE741F053
:1058B00001033D617D61AC60EC606B60695079E72C
:1058C0000121921001FA02F279680A437A609CE79A
:1058D000B3F5AA7F06D8CB0B03F1780003F177026A
:1058E000C30083E740F25452934206D88B0C03F175
:1058F0007D0003F17C02C30078E74FF47E737E22C3
:1059000074E741F001036B60016053E7C0020020BF
:10591000B8020020E01B00202DE9F04F01F10B053B
:10592000162D064683B024D8102900F2BA8000F064
:10593000A7FA102518230220B84F3B445C68A3F156
:105940000802944200F028816368E26823F00303B0
:105950002344A1683046CA6091605A6804F1080582
:1059600042F001025A6000F091FA284603B0BDE807
:10597000F08F35F0070500F19480A94200F2918084
:1059800000F07EFAB5F5FC7FC0F071816B0A00F083
:105990008C80042B00F22C81AB0903F1390003F158
:1059A000380CC1009D4F39444C680839A14206D1DA
:1059B0000CE0002A80F2ED80E468A14206D0636822
:1059C00023F003035A1B0F2AF3DD6046DFF850C2B1
:1059D0003C69644500F0C980626822F00302531BF1
:1059E0000F2B00F34881002BC7E904CC80F23481EF
:1059F000B2F5007F80F0D6804FF0010ED308520937
:105A000073440EFA02FE7A6857F833104EEA020E1B
:105A100007EBC302083AC7F804E0A160E26047F868
:105A20003340CC60012283109A40724543D812EA79
:105A30000E0F07D120F00300520012EA0E0F00F102
:105A40000400F9D007EBC00949468046CC68A14262
:105A500007D1D9E0002B80F2EF80E468A14200F08A
:105A6000D380636823F0030EAEEB05030F2BF1DD4B
:105A7000621945F0010565603046D4E90261F160C4
:105A80008E6043F00101C7E90422C2F808C0C2F8E1
:105A90000CC0516044F80E3000F0F8F904F108052C
:105AA00063E70C23336000255FE74FF4007140206B
:105AB0004FF03F0C76E7BC68636823F00309A94503
:105AC00003D3A9EB05030F2B52DC564B08201B68B0
:105AD00003F1100802F0B0F9534A04EB09030093F4
